:020000040800F2
:10000000000002200D280008ED220008F52200085B
:10001000FD220008052300080D2300080000000051
:100020000000000000000000000000001523000890
:100030002323000800000000312300083F230008AC
:100040005D2800085D2800085D2800085D2800087C
:100050005D2800085D2800085D2800085D2800086C
:100060005D2800085D2800085D2800085D2800085C
:100070005D2800085D2800085D2800085D2800084C
:100080005D2800085D2800085D28000800000000C9
:100090000000000000000000000000005D280008D3
:1000A0005D2800085D2800085D2800085D2800081C
:1000B0005D2800085D2800085D2800085D2800080C
:1000C0005D2800085D2800085D2800085D280008FC
:1000D0005D2800085D2800085D2800080000000079
:1000E0005D2800085D2800085D2800080000000069
:1000F0000000000000000000000000005D28000873
:10010000000000005D2800085D2800085D28000848
:1001100000000000000000000000000000000000DF
:100120005D2800085D2800085D2800085D2800089B
:100130005D28000800000000000000000000000032
:100140000000000000000000000000005D28000822
:100150005D2800085D2800085D2800085D2800086B
:100160005D2800085D280008000000000000000075
:10017000000000000000000000000000000000007F
:10018000000000005D2800080000000000000000E2
:080190005D2800085D2800084D
:1001A00010B5054C237833B9044B13B10448AFF3B1
:1001B00000800123237010BD3402002000000000E5
:1001C0007C98000808B5034B1BB103490348AFF303
:1001D000008008BD00000000380200207C98000864
:1001E00001F0FF01102A2BDB10F0070F08D010F8E8
:1001F000013B013A8B422DD010F0070F42B3F6D1EC
:10020000F0B441EA012141EA014122F007047FF004
:1002100000070023F0E80256083C85EA010586EA5B
:10022000010685FA47F5A3FA87F586FA47F6A5FA97
:1002300087F68EB9EED1F0BC01F0FF0102F00702A3
:1002400032B110F8013B013A83EA010313B1F8D14E
:100250000020704701387047002D06BF354603382F
:10026000073815F0010F07D1013015F4807F02BF68
:10027000013015F4C03F0130F0BC0138704700BFB9
:10028000034613F8012B002AFBD1181A01387047D6
:1002900081F0004102E000BF83F0004330B54FEA37
:1002A00041044FEA430594EA050F08BF90EA020FA4
:1002B0001FBF54EA000C55EA020C7FEA645C7FEA37
:1002C000655C00F0E2804FEA5454D4EB5555B8BF5A
:1002D0006D420CDD2C4480EA020281EA030382EACB
:1002E000000083EA010180EA020281EA0303362D5D
:1002F00088BF30BD11F0004F4FEA01314FF4801C30
:100300004CEA113102D0404261EB410113F0004F41
:100310004FEA03334CEA133302D0524263EB4303F8
:1003200094EA050F00F0A780A4F10104D5F1200E96
:100330000DDB02FA0EFC22FA05F2801841F10001F1
:1003400003FA0EF2801843FA05F359410EE0A5F1C5
:1003500020050EF1200E012A03FA0EFC28BF4CF0F6
:10036000020C43FA05F3C01851EBE37101F00045AC
:1003700007D54FF0000EDCF1000C7EEB00006EEBB9
:100380000101B1F5801F1BD3B1F5001F0CD3490843
:100390005FEA30004FEA3C0C04F101044FEA44529A
:1003A00012F5800F80F09A80BCF1004F08BF5FEA21
:1003B000500C50F1000041EB045141EA050130BD01
:1003C0005FEA4C0C404141EB0101013C28BFB1F513
:1003D000801FE9D291F0000F04BF01460020B1FA5E
:1003E00081F308BF2033A3F10B03B3F120020CDA31
:1003F0000C3208DD02F1140CC2F10C0201FA0CF00F
:1004000021FA02F10CE002F11402D8BFC2F1200C73
:1004100001FA02F120FA0CFCDCBF41EA0C01904029
:10042000E41AA2BF01EB0451294330BD6FEA040472
:100430001F3C1CDA0C340EDC04F11404C4F120025D
:1004400020FA04F001FA02F340EA030021FA04F36F
:1004500045EA030130BDC4F10C04C4F1200220FAC6
:1004600002F001FA04F340EA0300294630BD21FA04
:1004700004F0294630BD94F0000F83F4801306BFCA
:1004800081F480110134013D4EE77FEA645C18BFBE
:100490007FEA655C29D094EA050F08BF90EA020F55
:1004A00005D054EA000C04BF1946104630BD91EA4D
:1004B000030F1EBF0021002030BD5FEA545C05D150
:1004C0004000494128BF41F0004130BD14F580048F
:1004D0003CBF01F5801130BD01F0004545F0FE4103
:1004E00041F470014FF0000030BD7FEA645C1ABF38
:1004F000194610467FEA655C1CBF0B46024650EA6F
:10050000013406BF52EA033591EA030F41F400219A
:1005100030BD00BF90F0000F04BF0021704730B520
:100520004FF4806404F132044FF000054FF00001F5
:1005300050E700BF90F0000F04BF0021704730B5B6
:100540004FF4806404F1320410F0004548BF40428B
:100550004FF000013EE700BF42004FEAE2014FEAE0
:1005600031014FEA02701FBF12F07F4393F07F4FBB
:1005700081F06051704732F07F4208BF704793F0BE
:100580007F4F04BF41F40021704730B54FF46074D1
:1005900001F0004521F000411CE700BF50EA0102D4
:1005A00008BF704730B54FF000050AE050EA01027D
:1005B00008BF704730B511F0004502D5404261EBED
:1005C00041014FF4806404F132045FEA915C3FF42E
:1005D000D8AE4FF003025FEADC0C18BF03325FEACB
:1005E000DC0C18BF033202EBDC02C2F1200300FA7C
:1005F00003FC20FA02F001FA03FE40EA0E0021FAA1
:1006000002F11444BDE600BF70B54FF0FF0C4CF48E
:10061000E06C1CEA11541DBF1CEA135594EA0C0F40
:1006200095EA0C0F00F0DEF82C4481EA030621EA7B
:100630004C5123EA4C5350EA013518BF52EA0335B6
:1006400041F4801143F4801338D0A0FB02CE4FF068
:100650000005E1FB02E506F00042E0FB03E54FF098
:100660000006E1FB03569CF0000F18BF4EF0010E90
:10067000A4F1FF04B6F5007F64F5407404D25FEA8C
:100680004E0E6D4146EB060642EAC62141EA55513F
:100690004FEAC52040EA5E504FEACE2EB4F1FD0C81
:1006A00088BFBCF5E06F1ED8BEF1004F08BF5FEAFF
:1006B000500E50F1000041EB045170BD06F00046B1
:1006C00046EA010140EA020081EA0301B4EB5C045E
:1006D000C2BFD4EB0C0541EA045170BD41F4801156
:1006E0004FF0000E013C00F3AB8014F1360FDEBF7B
:1006F000002001F0004170BDC4F10004203C35DA57
:100700000C341BDC04F11404C4F1200500FA05F3D9
:1007100020FA04F001FA05F240EA020001F000427A
:1007200021F0004110EBD37021FA04F642EB0601F0
:100730005EEA430E08BF20EAD37070BDC4F10C041A
:10074000C4F1200500FA04F320FA05F001FA04F2DE
:1007500040EA020001F0004110EBD37041F10001CA
:100760005EEA430E08BF20EAD37070BDC4F12005D5
:1007700000FA05F24EEA020E20FA04F301FA05F23D
:1007800043EA020321FA04F001F0004121FA04F2E5
:1007900020EA020000EBD3705EEA430E08BF20EAB5
:1007A000D37070BD94F0000F0FD101F000464000EF
:1007B00041EB010111F4801F08BF013CF7D041EA71
:1007C000060195F0000F18BF704703F00046520075
:1007D00043EB030313F4801F08BF013DF7D043EA46
:1007E0000603704794EA0C0F0CEA135518BF95EAFC
:1007F0000C0F0CD050EA410618BF52EA4306D1D183
:1008000081EA030101F000414FF0000070BD50EAA1
:10081000410606BF1046194652EA430619D094EA2B
:100820000C0F02D150EA013613D195EA0C0F05D115
:1008300052EA03361CBF104619460AD181EA030169
:1008400001F0004141F0FE4141F470014FF0000021
:1008500070BD41F0FE4141F4780170BD70B54FF0BC
:10086000FF0C4CF4E06C1CEA11541DBF1CEA13553C
:1008700094EA0C0F95EA0C0F00F0A7F8A4EB05041E
:1008800081EA030E52EA03354FEA013100F0888015
:100890004FEA03334FF0805545EA131343EA1263DE
:1008A0004FEA022245EA111545EA10654FEA002693
:1008B0000EF000419D4208BF964244F1FD0404F54C
:1008C000407402D25B084FEA3202B61A65EB0305A8
:1008D0005B084FEA32024FF480104FF4002CB6EB65
:1008E000020E75EB030E22BFB61A754640EA0C00E5
:1008F0005B084FEA3202B6EB020E75EB030E22BF25
:10090000B61A754640EA5C005B084FEA3202B6EB65
:10091000020E75EB030E22BFB61A754640EA9C0024
:100920005B084FEA3202B6EB020E75EB030E22BFF4
:10093000B61A754640EADC0055EA060E18D04FEAB2
:10094000051545EA16754FEA06164FEAC30343EA52
:1009500052734FEAC2025FEA1C1CC0D111F4801F1F
:100960000BD141EA00014FF000004FF0004CB6E718
:1009700011F4801F04BF01430020B4F1FD0C88BFB7
:10098000BCF5E06F3FF6AFAEB5EB030C04BFB6EBC2
:10099000020C5FEA500C50F1000041EB045170BDB5
:1009A0000EF0004E4EEA113114EB5C04C2BFD4EBE2
:1009B0000C0541EA045170BD41F480114FF0000E66
:1009C000013C90E645EA060E8DE60CEA135594EAE2
:1009D0000C0F08BF95EA0C0F3FF43BAF94EA0C0FE5
:1009E0000AD150EA01347FF434AF95EA0C0F7FF45A
:1009F00025AF104619462CE795EA0C0F06D152EAAE
:100A000003353FF4FDAE1046194622E750EA410691
:100A100018BF52EA43067FF4C5AE50EA41047FF4A2
:100A20000DAF52EA43057FF4EBAE12E74FF0FF3C07
:100A300006E000BF4FF0010C02E000BF4FF0010CD8
:100A40004DF804CD4FEA410C7FEA6C5C4FEA430C51
:100A500018BF7FEA6C5C1BD001B050EA410C0CBFA0
:100A600052EA430C91EA030F02BF90EA020F002002
:100A7000704710F1000F91EA030F58BF994208BF69
:100A800090422CBFD8176FEAE37040F00100704726
:100A90004FEA410C7FEA6C5C02D150EA013C07D17D
:100AA0004FEA430C7FEA6C5CD6D152EA033CD3D0C8
:100AB0005DF8040B704700BF8446104662468C46C2
:100AC0001946634600E000BF01B5FFF7B7FF0028F5
:100AD00048BF10F1000F01BD4DF808EDFFF7F4FF1E
:100AE0000CBF012000205DF808FB00BF4DF808EDA9
:100AF000FFF7EAFF34BF012000205DF808FB00BFCC
:100B00004DF808EDFFF7E0FF94BF012000205DF8ED
:100B100008FB00BF4DF808EDFFF7CEFF94BF0120A2
:100B200000205DF808FB00BF4DF808EDFFF7C4FF9B
:100B300034BF012000205DF808FB00BF4FEA410CE4
:100B40007FEA6C5C02D150EA013C0AD14FEA430CC7
:100B50007FEA6C5C02D152EA033C02D14FF0000004
:100B600070474FF0010070474FEA410212F5001242
:100B700015D211D56FF47873B3EB625212D94FEAE4
:100B8000C12343F0004343EA505311F0004F23FACE
:100B900002F018BF404270474FF00000704750EA23
:100BA000013005D111F0004008BF6FF000407047E0
:100BB0004FF00000704700BF4A0011D212F500123A
:100BC00011D20DD56FF47873B3EB62520ED44FEAA5
:100BD000C12343F0004343EA505323FA02F0704725
:100BE0004FF00000704750EA013002D14FF0FF3063
:100BF00070474FF0000070474FEA4102B2F1E04306
:100C000024BFB3F5001CDCF1FE5C0DD901F0004CF3
:100C10004FEAC0024CEA5070B2F1004F40EB830043
:100C200008BF20F00100704711F0804F21D113F16F
:100C30003872BCBF01F00040704741F480114FEAA8
:100C40005252C2F11802C2F1200C10FA0CF320FA31
:100C500002F018BF40F001004FEAC1234FEAD3234E
:100C600003FA0CFC40EA0C0023FA02F34FEA4303B8
:100C7000CCE77FEA625307D150EA01331EBF4FF041
:100C8000FE4040F44000704701F0004040F0FE405C
:100C900040F40000704700BF53B94AB9002908BFAB
:100CA00000281CBF4FF0FF314FF0FF3000F0BEB9FD
:100CB000ADF1080C6DE904CE00F03CF8DDF804E07D
:100CC000DDE9022304B0704738B500220023044652
:100CD0000D46FFF70BFF28B920462946BDE83840EE
:100CE00000F00AB8204605F1004100F005F8404246
:100CF00061EB410138BD00BFD0B50C4B0022064668
:100D00000F46FFF781FCFFF757FF0446FFF702FC91
:100D1000074B0022FFF778FC02460B463046394667
:100D2000FFF7BAFAFFF748FF2146D0BD0000F03DBB
:100D30000000F0412DE9F047089D8E4604468846A4
:100D4000002B4AD18A42174662D9B2FA82F64EB1D6
:100D5000C6F1200301FA06F820FA03F3B74043EA8C
:100D60000808B4404FEA174E1FFA87FCB8FBFEF1A3
:100D7000230C0EFB118843EA084301FB0CF29A4254
:100D800009D9FB1801F1FF3080F0EA809A4240F265
:100D9000E78002393B449A1AA3B2B2FBFEF00EFB85
:100DA000102243EA024300FB0CFC9C4509D9FB18C6
:100DB00000F1FF3280F0D6809C4540F2D3803B4466
:100DC000023840EA0140A3EB0C0300211DB1F340BF
:100DD0000022C5E90032BDE8F0878B4205D90DB18C
:100DE000C5E9000100210846F5E7B3FA83F10029BF
:100DF00046D1734502D3824200F20581841A6EEB1C
:100E0000030201209046002DE5D0C5E90048E2E745
:100E1000002A00F09080B2FA82F6002E40F0A48002
:100E20008A1A030C4FEA174E80B2BCB20121B2FB02
:100E3000FEFC0EFB1C2243EA024304FB0CF29A4226
:100E400007D9FB180CF1FF3802D29A4200F2E08079
:100E5000C4469B1AB3FBFEF20EFB123340EA034377
:100E600002FB04F49C4207D9FB1802F1FF3002D2C6
:100E70009C4200F2CA8002461B1B42EA0C40A5E7D6
:100E8000C1F120068B4022FA06F71F430EFA01F447
:100E900020FA06F32EFA06FE4FEA1749234300FA1A
:100EA00001F81FFA87FCBEFBF9F01C0C09FB10EEE1
:100EB00044EA0E4400FB0CFEA64502FA01F209D9F1
:100EC0003C1900F1FF3A80F09C80A64540F29980E1
:100ED00002383C44A4EB0E041FFA83FEB4FBF9F382
:100EE00009FB13444EEA044403FB0CFCA44508D957
:100EF0003C1903F1FF3E80F08280A4457FD9023B7C
:100F00003C4443EA0040A4EB0C04A0FB02EC644523
:100F10007346E14662D35FD05DB1B8EB030264EB88
:100F2000090404FA06F622FA01F31E43CC40C5E98F
:100F3000006400214FE7B1FBF2FC010C41EA0E41D5
:100F400080B240EA01423B4638463C46B846BE467F
:100F50002026B1FBF7F1A2EB080241EA0C4166E75B
:100F6000014618E710462CE7C6F120022EFA02F3DC
:100F7000B740B14020FA02F24FEA174E0A43B3FBE2
:100F8000FEF8BCB20EFB1833110C41EA034108FB1A
:100F900004F9B04089454FEA104380B23ED9791830
:100FA00008F1FF3C01D289451FD8A1EB0901B1FB33
:100FB000FEF909FB04F80EFB191192B242EA014254
:100FC000424529D2BA1809F1FF31C4D24245C2D2F2
:100FD000A9F102013A44BEE7F0459DD2BEEB0203FF
:100FE0006CEB070C0138E14696E7A7EB0909494489
:100FF000A8F1020CB1FBFEF909FB04F8DBE773462C
:101000007FE7504666E70846FDE63B44023A33E791
:10101000ACF1020C3B441CE749469CE7A1EB0901FB
:10102000C446B1FBFEF909FB04F8C4E7704700BFF2
:1010300080B584B000AF01F079FCB8600023FB609C
:101040007FE04449FA6813465B0013449B000B445D
:1010500008331B687B603F49FA6813465B00134402
:101060009B000B4418683B49FA6813465B00134425
:101070009B000B4404331B88194602F025FA0346F3
:10108000FB707B681B7AFA789A4222D07B681B68D7
:10109000BA68D31A132B51D97B68FA781A727B6815
:1010A000BA681A60FB78002B0FD17B68BA685A6067
:1010B0007B6800225A722749FA6813465B00134482
:1010C0009B000B4404331B8840E07B6800225A726B
:1010D00034E0FB78002B31D17B685B7A002B16D192
:1010E0007B685B68BA68D31AB3F57A7F0FD37B68E5
:1010F00001225A727B68BA681A601649FA68134668
:101100005B0013449B000B4404331B881EE07B6888
:101110005B7A002B12D07B681B68BA68D31A312B1C
:101120000CD97B68BA681A600A49FA6813465B00F2
:1011300013449B000B4404331B8807E0FB68013316
:10114000FB60FB68022B7FF77CAF0023184610374B
:10115000BD4680BD2400002080B487B000AFF86099
:101160000B4687ED010A7B81D7ED017ADFED256A19
:1011700087EEA67AFB681B68DB6A07EE903AF8EE0A
:10118000677A67EE277AFCEEE77A17EE903AFB82F1
:101190007B890C2B30D801A252F823F0D111000822
:1011A000F9110008F9110008F9110008DB11000815
:1011B000F9110008F9110008F9110008E5110008FB
:1011C000F9110008F9110008F9110008EF110008E1
:1011D000FB681B68FA8A5A630EE0FB681B68FA8A90
:1011E0009A6309E0FB681B68FA8ADA6304E0FB682B
:1011F0001B68FA8A1A6400BF00BF1C37BD465DF841
:10120000047B70470000C84280B582B000AF87ED14
:10121000010A234BD3ED067A97ED017AB4EE677A93
:10122000F1EE10FA38D01E4A7B689361D7ED017A4F
:10123000F5EEC07AF1EE10FA10DD194B9B68184AF2
:1012400091890122184602F057F9154B1B69144A7F
:10125000918A0122184602F04FF90FE0104B9B686B
:101260000F4A91890022184602F046F90C4B1B697F
:101270000B4A918A0022184602F03EF9084B1B687F
:10128000074A928897ED010A11461846FFF764FF56
:1012900097ED010A00F0D2F900BF0837BD4680BDC6
:1012A0005002002080B584B000AFF8607A601A4622
:1012B0000B467B8113463B81104AFB6813600F4A43
:1012C0007B8993800D4A7B6893600C4A3B899381AC
:1012D0000A4ABB691361094ABB8B9382074B4FF0E3
:1012E00000029A61054B1B68044A92881146184611
:1012F00002F06EFE00BF1037BD4680BD50020020D8
:1013000080B584B000AF78607B6818687B681B8903
:101310000122194602F0F0F80023FB7302E0FB7B88
:101320000133FB73FB7B312BF9D97B6818687B6831
:101330001B890022194602F0DFF800BF1037BD46B6
:1013400080BD80B582B000AF78600B46FB707B68D3
:1013500018687B685989FB7803F00103DBB21A46F1
:1013600002F0CAF87B6818687B689989FB785B1083
:10137000DBB203F00103DBB21A4602F0BDF87B6872
:1013800018687B68D989FB789B10DBB203F00103F6
:10139000DBB21A4602F0B0F87B6818687B68198ADD
:1013A000FB78DB10DBB203F00103DBB21A4602F07C
:1013B000A3F87868FFF7A4FF00BF0837BD4680BDDB
:1013C00080B582B000AF78600B46FB707B68186810
:1013D0007B68DB880022194602F08EF8FB781B0937
:1013E000DBB219467868FFF7ACFFFB7803F00F0318
:1013F000DBB219467868FFF7A4FF00BF0837BD4687
:1014000080BD80B582B000AF78600B46FB707B6812
:1014100018687B68DB880122194602F06DF8FB78BA
:101420001B09DBB219467868FFF78BFFFB7803F0E6
:101430000F03DBB219467868FFF783FF00BF083758
:10144000BD4680BD80B582B000AF78607B6818680B
:101450007B685B890022194602F04EF87B681868A9
:101460007B689B890022194602F046F87B68186861
:101470007B68DB890022194602F03EF87B68186819
:101480007B681B8A0022194602F036F87B681868D0
:101490007B681B890022194602F02EF87B681868C9
:1014A0007B68DB880022194602F026F87B689B885F
:1014B000002B07D07B6818687B689B880022194640
:1014C00002F01AF8322001F03DFA03217868FFF7A4
:1014D00038FF052001F036FA03217868FFF731FF65
:1014E000012001F02FFA03217868FFF72AFF01207D
:1014F00001F028FA02217868FFF723FF012001F0AC
:1015000021FA28217868FFF75BFF012001F01AFA21
:1015100008217868FFF754FF012001F013FA012138
:101520007868FFF74DFF022001F00CFA0621786879
:10153000FFF746FF012001F005FA0C217868FFF75C
:101540003FFF0A2001F0FEF900BF0837BD4680BD0D
:1015500080B584B000AF78600B46FB701346BB705B
:101560000D4BFB60BB78032B01D90323BB70BB7809
:1015700010333B4413F8042CFB781344DBB25BB20A
:1015800063F07F035BB2DBB219467868FFF718FFA0
:1015900000BF1037BD4680BD0040145480B582B0F6
:1015A00000AF7860396007E03B685A1C3A601B78EE
:1015B00019467868FFF725FF3B681B78002BF3D1AD
:1015C00000BF00BF0837BD4680BD000080B584B0B5
:1015D00000AF786087ED000AD7ED007A9FED0F7AB3
:1015E000F4EE477AF1EE10FA04D10D497868FFF76E
:1015F000D5FF0FE03868FEF7AFFF02460B4607F154
:101600000800084904F0FAFC07F108031946786855
:10161000FFF7C4FF1037BD4680BD00BF0000C842C1
:1016200098980008A098000880B500AF9FED020AC6
:1016300000F004F800BF80BD0000000080B485B059
:1016400000AF87ED010A0023FB60D7ED017AB2EE0F
:10165000007A27EE877ADFED196AC7EE267AFCEE6C
:10166000E77AC7ED007A3B78BB720023FB7218E083
:10167000FA7ABB7A9A4209D3FB7A1033012202FA32
:1016800003F31A46FB681343FB6007E0FB7A012271
:1016900002FA03F31A46FB681343FB60FB7A01333B
:1016A000FB72FB7A072BE3D9054AFB68936100BF05
:1016B0001437BD465DF8047B704700BF0000C84288
:1016C0000004024080B582B000AF786039607B686A
:1016D0003A681A607B684FF000025A60386801F07F
:1016E00099F900BF0837BD4680BD000080B584B0C1
:1016F00000AF78607B681B68184601F03FFA07EE80
:10170000900AF8EE677AC7ED037AD7ED037A9FED7A
:101710000D7A27EE877ADFED0C6AC7EE267AC7EDE1
:10172000027AD7ED027A9FED097A67EE877A9FED0C
:10173000087A77EEC77A7B68C3ED017A00BF10376D
:10174000BD4680BD3333534000F07F450000C842A2
:10175000CDCCCC3E80B483B000AF87ED010A044A03
:101760007B68136000BF0C37BD465DF8047B704793
:101770009803002080B500AF384B1B78022B52D065
:1017800001F0D4F80246364B1B68D31AB3F5FA7F42
:1017900049D3324B1B78002B18D0012B2DD10122BD
:1017A0000C213048FFF7D4FE2F4B1B78002B04D0C0
:1017B0002E492C48FFF7F2FE20E02D4BD3ED007AA6
:1017C000B0EE670A2748FFF701FF17E00122062164
:1017D0002448FFF7BDFE244B1B78002B04D023497F
:1017E0002048FFF7DBFE09E0224BD3ED007AB0EE94
:1017F000670A1C48FFF7EAFE00E000BF1A4B1B789F
:10180000002B14BF01230023DBB283F00103DBB202
:1018100003F00103DAB2144B1A7001F087F80346A3
:101820000F4A136019E001220C210E48FFF790FEC9
:101830000F4BD3ED007AB0EE670A0A48FFF7C6FEF9
:10184000012206210748FFF783FE0A4BD3ED007AF9
:10185000B0EE670A0348FFF7B9FE80BD5C000020C8
:10186000A4030020480000209C030020A898000842
:10187000940300209803002080B582B000AFFFF7EA
:10188000D7FB0346FB80FB88002B00F08F80494B81
:101890001B78022B07D0022B00F38180002B0AD08B
:1018A000012B2FD07BE0FB88B3F5804F79D1414BE2
:1018B00000221A7075E0FB88B3F5005F09D13E4B3A
:1018C000D3ED007AB6EE007A77EEC77A3A4BC3EDE5
:1018D000007AFB88B3F5004F09D1374BD3ED007A7E
:1018E000B6EE007A77EE877A334BC3ED007AFB8849
:1018F000B3F5804F57D12F4B01221A702F4B002286
:101900001A7050E0FB88B3F5005F18D12C4B012210
:101910001A702C4BD3ED007AB6EE007A77EEC77AC8
:10192000284BC3ED007A274BD3ED007AF5EEC07A51
:10193000F1EE10FA03D5234B4FF000021A60FB883A
:10194000B3F5004F19D11E4B01221A701D4BD3ED78
:10195000007AB6EE007A77EE877A1A4BC3ED007AFA
:10196000184BD3ED007A9FED187AF4EEC77AF1EEBA
:1019700010FA02DD134B154A1A60124BD3ED007AB0
:10198000B0EE670AFFF740FCFB88B3F5804F0CD13F
:10199000084B02221A70094B00221A7005E000BFA2
:1019A00004E000BF02E000BF00E000BF00BF083756
:1019B000BD4680BD5C000020980300209C030020F1
:1019C0009D030020940300200000C8420000C8428C
:1019D00080B500AF002200212848FFF7B9FD284953
:1019E0002648FFF7DBFD274BD3ED007AB0EE670A00
:1019F0002248FFF7EBFD24492048FFF7CFFD234B9A
:101A0000D3ED007AF5EE407AF1EE10FA23D01F4BB9
:101A1000D3ED007A9FED1E7AF4EEC77AF1EE10FA5C
:101A200001D51C4B18E0194BD3ED007A9FED187AC5
:101A3000F4EEC77AF1EE10FA0BDB144BD3ED007A1B
:101A40009FED157AF4EEC77AF1EE10FA01D8134B38
:101A500002E0134B00E0134B19460848FFF79EFDC8
:101A6000012200210548FFF773FD0F490348FFF7E6
:101A700095FDFFF77FFE00BF80BD00BF480000203E
:101A8000B0980008A0030020B89800089403002034
:101A900000002042BC98000800009642C098000850
:101AA000C4980008CC980008D098000880B584B08D
:101AB00002AF00F0D5FE00F08DF800F041FA00F022
:101AC00043F900F0C5F900F011FA00F0EBF83548E1
:101AD00002F0D4F9FFF7A8FD10230193324B0093D5
:101AE0000823314A00213148FFF7DCFB304800F081
:101AF0003FFE3048FFF7A6FC2F493048FFF7E2FDD4
:101B000000F046FE0346002B02D02D4B01221A7036
:101B1000FFF7B2FE2948FFF7E9FD284B5B68294A29
:101B20001360274B1B78002B0DD0264B93ED007ACA
:101B3000254BD3ED007AB4EEE77AF1EE10FA02D538
:101B40001F4B00221A701E4B1B7883F00103DBB27F
:101B5000002B23D01B4B93ED007A1B4BD3ED007A67
:101B600077EE677AC7ED017AD7ED017AF5EEC07AA4
:101B7000F1EE10FA06DDD7ED017AB2EE047A67EEE7
:101B8000877A01E0DFED117A114BC3ED007A104B3B
:101B9000D3ED007AB0EE670AFFF736FBFFF718FFC8
:101BA000AEE700BFFC02002000000240B4020020AB
:101BB00044030020480000206C0200208C03002019
:101BC0009D030020A00300209803002000000000D7
:101BD0009403002080B594B000AF07F120033022B9
:101BE0000021184604F06FFA07F10C0300221A6076
:101BF0005A609A60DA601A610023BB60274B1B6C45
:101C0000264A43F080531364244B1B6C03F080532B
:101C1000BB60BB6800237B60214B1B68204A43F4F8
:101C2000404313601E4B1B6803F440437B607B689A
:101C300002233B620123FB6210233B630223BB634D
:101C40000023FB6308233B6464237B640223BB649F
:101C50000423FB6407F12003184601F067FC0346E8
:101C6000002B01D000F00AFA0F23FB6002233B6136
:101C700000237B614FF48053BB610023FB6107F1BC
:101C80000C030321184601F0C9FE0346002B01D0C6
:101C900000F0F4F900BF5037BD4680BD0038024067
:101CA0000070004080B584B000AF3B4600221A604F
:101CB0005A609A60DA60214B214A1A601F4B4FF438
:101CC00080325A601D4B00229A601C4B00221A6120
:101CD0001A4B01221A76194B002283F82020174B49
:101CE0000022DA62154B174A9A62144B0022DA601E
:101CF000124B0122DA61114B002283F830200F4B86
:101D000001225A610D4800F041FE0346002B01D02C
:101D100000F0B4F901233B6001237B600723BB6023
:101D20003B461946054800F037FF0346002B01D01B
:101D300000F0A4F900BF1037BD4680BD6C02002042
:101D4000002001400100000F80B592B000AF07F104
:101D5000400300221A605A6007F1240300221A602F
:101D60005A609A60DA601A615A619A613B1D2022BA
:101D70000021184604F0A7F9334B344A1A60324B5D
:101D800063225A60304B00229A602F4B4FF6FF724D
:101D9000DA602D4B00221A612B4B00225A612A4B2C
:101DA00000229A61284802F0C3F80346002B01D0B4
:101DB00000F064F900233B6400237B6407F14003D7
:101DC0001946214802F010FE0346002B01D000F016
:101DD00055F960237B620023BB620023FB62002372
:101DE0003B6300237B630023BB630023FB6307F19A
:101DF000240300221946144802F09AF90346002BE6
:101E000001D000F03BF900237B600023BB6000237E
:101E1000FB6000233B6100237B614FF40053BB61F7
:101E200000233B623B1D1946074802F04BFE034668
:101E3000002B01D000F022F9034800F0D5F900BFD3
:101E40004837BD4680BD00BFB402002000000140FD
:101E500080B586B000AF07F1080300221A605A600F
:101E60009A60DA603B4600221A605A601D4B1E4A97
:101E70001A601C4B63225A601A4B00229A60194B5D
:101E80004FF6FF72DA60174B00221A61154B0022E1
:101E90009A61144801F0A2FF0346002B01D000F024
:101EA000EDF84FF48053BB6007F1080319460D4865
:101EB00002F000FA0346002B01D000F0DFF8002307
:101EC0003B6000237B603B461946064802F08CFDD0
:101ED0000346002B01D000F0D1F800BF1837BD46F3
:101EE00080BD00BFFC0200200004004080B500AFB0
:101EF000114B124A1A60104B4FF4E1325A600E4BEC
:101F000000229A600C4B0022DA600B4B00221A610F
:101F1000094B0C225A61084B00229A61064B0022A1
:101F2000DA61054802F020FE0346002B01D000F0E4
:101F3000A5F800BF80BD00BF440300200010014091
:101F400080B58AB000AF07F1140300221A605A600E
:101F50009A60DA601A6100233B61444B1B6B434A71
:101F600043F004031363414B1B6B03F004033B6119
:101F70003B690023FB603D4B1B6B3C4A43F08003F5
:101F800013633A4B1B6B03F08003FB60FB68002379
:101F9000BB60364B1B6B354A43F001031363334B75
:101FA0001B6B03F00103BB60BB6800237B602F4BFE
:101FB0001B6B2E4A43F0020313632C4B1B6B03F085
:101FC00002037B607B6800221121294801F094FA0A
:101FD00000224FF2FF71274801F08EFA4FF4604360
:101FE0007B610023BB610123FB6107F114031946E8
:101FF000214801F0E5F801237B610123BB61002347
:10200000FB6101233B6207F114031946184801F0F4
:10201000D7F808237B610023BB610023FB6107F134
:1020200014031946124801F0CBF810237B610123F9
:10203000BB610023FB6100233B6207F114031946D7
:102040000B4801F0BDF84FF2FF737B610123BB61C8
:102050000023FB6101233B6207F114031946054885
:1020600001F0AEF800BF2837BD4680BD0038024001
:1020700000000240000402400008024080B400AFAB
:1020800072B600BF00BFFDE780B483B000AF00238D
:102090007B60104B5B6C0F4A43F4804353640D4BE1
:1020A0005B6C03F480437B607B6800233B60094BDF
:1020B0001B6C084A43F080531364064B1B6C03F0FF
:1020C00080533B603B6800BF0C37BD465DF8047B26
:1020D000704700BF0038024080B58AB000AF78601A
:1020E00007F1140300221A605A609A60DA601A61DC
:1020F0007B681B68174A934227D100233B61164B2C
:102100005B6C154A43F480735364134B5B6C03F4AC
:1021100080733B613B690023FB600F4B1B6B0E4AD6
:1021200043F0010313630C4B1B6B03F00103FB60D3
:10213000FB6802237B610323BB610023FB6107F182
:1021400014031946054801F03BF800BF2837BD4687
:1021500080BD00BF00200140003802400000024066
:1021600080B485B000AF78607B681B680B4A9342EF
:102170000DD10023FB600A4B5B6C094A43F001035D
:102180005364074B5B6C03F00103FB60FB6800BF0B
:102190001437BD465DF8047B704700BF0000014066
:1021A0000038024080B485B000AF78607B681B685F
:1021B0000B4A93420DD10023FB600A4B1B6C094A6A
:1021C00043F002031364074B1B6C03F00203FB6034
:1021D000FB6800BF1437BD465DF8047B704700BF45
:1021E000000400400038024080B588B000AF78603D
:1021F00007F10C0300221A605A609A60DA601A61D3
:102200007B681B68124A93421ED10023BB60114BAE
:102210001B6B104A43F0010313630E4B1B6B03F05F
:102220000103BB60BB684FF48073FB6002233B611A
:1022300000237B610023BB610123FB6107F10C03D9
:102240001946054800F0BCFF00BF2037BD4680BDE1
:1022500000000140003802400000024080B58AB012
:1022600000AF786007F1140300221A605A609A6088
:10227000DA601A617B681B68194A93422CD10023EB
:102280003B61184B5B6C174A43F010035364154BCA
:102290005B6C03F010033B613B690023FB60114B57
:1022A0001B6B104A43F0010313630E4B1B6B03F0CF
:1022B0000103FB60FB684FF4C0637B610223BB61D9
:1022C0000023FB6103233B6207237B6207F11403B6
:1022D0001946054800F074FF00BF2837BD4680BD91
:1022E00000100140003802400000024080B400AFFE
:1022F00000BFFDE780B400AF00BFFDE780B400AFD2
:1023000000BFFDE780B400AF00BFFDE780B400AFC1
:1023100000BFFDE780B400AF00BFBD465DF8047BA1
:10232000704780B400AF00BFBD465DF8047B7047C6
:1023300080B400AF00BFBD465DF8047B704780B538
:1023400000AF00F0DFFA00BF80BD80B400AF012312
:102350001846BD465DF8047B704780B582B000AF7B
:102360007860396003F002FF034616221A604FF0CE
:10237000FF3318460837BD4680BD80B582B000AF38
:1023800078604FF0FF317868FFF7E7FF00BFFDE7A7
:1023900080B586B000AFF860B9607A6000237B61D9
:1023A0000AE0AFF300800146BB685A1CBA60CAB2AB
:1023B0001A707B6901337B617A697B689A42F0DB32
:1023C0007B6818461837BD4680BD80B586B000AF23
:1023D000F860B9607A6000237B6109E0BB685A1C31
:1023E000BA601B781846AFF300807B6901337B61CC
:1023F0007A697B689A42F1DB7B6818461837BD46DC
:1024000080BD80B483B000AF78604FF0FF331846D2
:102410000C37BD465DF8047B704780B483B000AFD5
:10242000786039603B684FF400525A6000231846C8
:102430000C37BD465DF8047B704780B483B000AFB5
:102440007860012318460C37BD465DF8047B704761
:1024500080B485B000AFF860B9607A600023184698
:102460001437BD465DF8047B7047000080B586B028
:1024700000AF7860144A154BD31A7B617B693B61CE
:10248000134B1B68002B02D1114B124A1A60104BE0
:102490001A687B6813443A699A4207D203F066FED1
:1024A00003460C221A604FF0FF3309E0084B1B680B
:1024B000FB60074B1A687B681344054A1360FB688E
:1024C00018461837BD4680BD0000022000040000F9
:1024D000A80300201805002080B400AF064BD3F8F5
:1024E0008830054A43F47003C2F8883000BFBD4607
:1024F0005DF8047B704700BF00ED00E080B487B05A
:1025000000AFF8600B467A607B810023FB827B681A
:1025100000221A800123BB822CE0BB8AFA68134494
:102520001A78FB8AF9680B441B789A420CD1FB8A13
:102530000133FB82BB8A5B007A681344FA8A1A80F3
:10254000BB8A0133BB8215E0FB8A002B09D0FB8AD2
:1025500003F10043013B5B007A6813441B88FB8254
:1025600008E0BB8A5B007A68134400221A80BB8AA9
:102570000133BB82BA8A7B899A42CED300BF00BFA7
:102580001C37BD465DF8047B70472DE9F04387B0EA
:1025900000AF786039606B461E467868FDF770FEC4
:1025A00003467B823868FDF76BFE03463B823B8A1D
:1025B000002B01D17B6860E0398A0B46013BFB6050
:1025C0008BB20022984691464FF000024FF0000374
:1025D0004FEA091343EA18734FEA08128BB200223C
:1025E0001C4615464FF000024FF000032B0143EA52
:1025F000147322010B465B000733DB08DB00ADEBF5
:10260000030D6B4601335B085B00BB603B8ABA6815
:1026100019463868FFF772FF0023FB820023BB8254
:1026200026E0FB8A7A6813441A78BB8A39680B441F
:102630001B789A420FD1FB8A0133FB82BB8A01339C
:10264000BB82BA8A3B8A9A4212D1FA8ABB8AD31ACF
:102650007A68134411E0BB8A002B06D0BB8A5A1E4D
:10266000BB6833F81230BB8202E0FB8A0133FB8285
:10267000FA8A7B8A9A42D4D30023B54618461C377F
:10268000BD46BDE8F083000080B487B000AF78603D
:102690004FF000037B61344B3B610023FB7302E08E
:1026A0007B6801337B607B681B78002B46D07B689E
:1026B0001B782F2BF4D97B681B78392BF0D83DE0A1
:1026C0007B681B782E2B05D10123FB737B680133BC
:1026D0007B6033E0FB7B83F00103DBB2002B11D086
:1026E000D7ED057AB2EE047A27EE877A7B681B78FD
:1026F000303B07EE903AF8EEE77A77EE277AC7EDAF
:10270000057A18E07B681B78303B07EE903AB8EE0C
:10271000E77AD7ED047A67EE277A97ED057A77EEB8
:10272000277AC7ED057AD7ED047A9FED107A67EE28
:10273000877AC7ED047A7B6801337B607B681B78FE
:102740002F2B03D97B681B78392BB9D97B681B7871
:102750002E2BB5D07B6907EE903AB0EE670A1C3796
:10276000BD465DF8047B7047CDCCCC3DCDCCCC3D97
:1027700080B582B000AF786001220449786802F029
:1027800043FA00BF0837BD4680BD00BFC10300202B
:1027900090B583B000AF1A4B1B78002B2AD0184B92
:1027A00000221A700023FB711FE0FB79154A52F8D2
:1027B000333019461448FFF7E8FE0346002B11D0CA
:1027C000FB79104ADB0013445C680F48FFF75CFF9D
:1027D000F0EE407AB0EE670AA047FB79002B08D1F3
:1027E000012308E0FB790133FB71FB79012BDCD974
:1027F00000E000BF002318460C37BD4690BD00BF67
:10280000C00300200C990008AC030020DFF834D08E
:10281000FFF762FE0C480D490D4A002302E0D45830
:10282000C4500433C4188C42F9D30A4A0A4C00231A
:1028300001E013600432A242FBD303F09DFCFFF7DA
:1028400035F970470000022000000020340200200B
:10285000549D00083402002014050020FEE700000B
:1028600080B500AF0E4B1B680D4A43F40073136034
:102870000B4B1B680A4A43F480631360084B1B68C8
:10288000074A43F480731360032000F065FC0F20B7
:1028900000F008F8FFF7F8FB0023184680BD00BFE2
:1028A000003C024080B582B000AF7860124B1A68DD
:1028B000124B1B7819464FF47A73B3FBF1F3B2FB5A
:1028C000F3F3184600F06FFC0346002B01D0012300
:1028D0000EE07B680F2B0AD8002279684FF0FF309A
:1028E00000F045FC064A7B681360002300E00123EA
:1028F00018460837BD4680BD6000002068000020F3
:102900006400002080B400AF064B1B781A46064BCB
:102910001B681344044A136000BFBD465DF8047B86
:10292000704700BF68000020C403002080B400AFDF
:10293000034B1B681846BD465DF8047B704700BF1B
:10294000C403002080B584B000AF7860FFF7EEFFCD
:10295000B8607B68FB60FB68B3F1FF3F05D00A4BB2
:102960001B781A46FB681344FB6000BFFFF7DEFFCD
:102970000246BB68D31AFA689A42F7D800BF00BF74
:102980001037BD4680BD00BF6800002080B584B010
:1029900000AF78600023FB737B68002B01D101231B
:1029A00033E07B681B6C002B09D17868FFF794FB40
:1029B0007B6800225A647B68002283F83C207B6895
:1029C0001B6C03F01003002B18D17B681B6C23F4E5
:1029D000885323F0020343F002027B681A6478688C
:1029E00000F00CFA7B6800225A647B681B6C23F0B1
:1029F000030343F001027B681A6401E00123FB73C7
:102A00007B68002283F83C20FB7B18461037BD46CC
:102A100080BD000080B485B000AF78600023BB604B
:102A20007B6893F83C30012B01D1022397E07B684F
:102A3000012283F83C207B681B689B6803F001033C
:102A4000012B18D07B681B689A687B681B6842F072
:102A500001029A60454B1B68454AA2FB03239A0C6E
:102A600013465B001344BB6002E0BB68013BBB60E4
:102A7000BB68002BF9D17B681B689B6803F00103DE
:102A8000012B5FD17B681B6C23F4E06323F001030F
:102A900043F480727B681A647B681B685B6803F48C
:102AA0008063002B07D07B681B6C23F4405343F4F6
:102AB00080527B681A647B681B6C03F48053B3F507
:102AC000805F06D17B685B6C23F006027B685A64EA
:102AD00002E07B6800225A647B68002283F83C2075
:102AE000244BFB607B681B686FF022021A60FB6856
:102AF0005B6803F01F03002B0FD17B681B689B688A
:102B000003F04053002B29D17B681B689A687B68CF
:102B10001B6842F080429A6020E07B681B68164A7E
:102B200093421BD17B681B689B6803F04053002BCA
:102B300014D17B681B689A687B681B6842F08042EE
:102B40009A600BE07B681B6C43F010027B681A6490
:102B50007B685B6C43F001027B685A640023184673
:102B60001437BD465DF8047B704700BF600000204D
:102B700083DE1B43002301400020014080B483B06A
:102B800000AF78607B681B68DB6C18460C37BD466D
:102B90005DF8047B7047000080B485B000AF7860BA
:102BA00039600023BB607B6893F83C30012B01D176
:102BB000022313E17B68012283F83C203B681B68F9
:102BC000092B25D97B681B68D9683B681B689BB2B9
:102BD0001A4613465B0013441E3B072202FA03F316
:102BE000DA437B681B680A40DA607B681B68D96837
:102BF0003B689A683B681B689BB2184603465B00BB
:102C000003441E3B9A407B681B680A43DA6022E05B
:102C10007B681B6819693B681B689BB21A461346A0
:102C20005B001344072202FA03F3DA437B681B6854
:102C30000A401A617B681B6819693B689A683B689F
:102C40001B689BB2184603465B0003449A407B68AE
:102C50001B680A431A613B685B68062B24D87B68B3
:102C60001B68596B3B685A6813469B001344053B2D
:102C70001F2202FA03F3DA437B681B680A405A6397
:102C80007B681B68596B3B681B689BB218463B68A6
:102C90005A6813469B001344053B00FA03F27B6815
:102CA0001B680A435A634CE03B685B680C2B24D8D2
:102CB0007B681B68196B3B685A6813469B0013447A
:102CC000233B1F2202FA03F3DA437B681B680A40A6
:102CD0001A637B681B68196B3B681B689BB21846BC
:102CE0003B685A6813469B001344233B00FA03F2E7
:102CF0007B681B680A431A6323E07B681B68D96AF8
:102D00003B685A6813469B001344413B1F2202FA5A
:102D100003F3DA437B681B680A40DA627B681B684E
:102D2000D96A3B681B689BB218463B685A681346D1
:102D30009B001344413B00FA03F27B681B680A4383
:102D4000DA62294BFB607B681B68284A93420FD1EB
:102D50003B681B68122B0BD1FB685B6823F40002F5
:102D6000FB685A60FB685B6843F48002FB685A604A
:102D70007B681B681D4A93422BD13B681B681C4A29
:102D8000934203D03B681B68112B22D1FB685B6820
:102D900023F48002FB685A60FB685B6843F400021E
:102DA000FB685A603B681B68114A934211D1114B72
:102DB0001B68114AA2FB03239A0C13469B00134481
:102DC0005B00BB6002E0BB68013BBB60BB68002BE3
:102DD000F9D17B68002283F83C2000231846143781
:102DE000BD465DF8047B7047002301400020014090
:102DF000120000106000002083DE1B4380B485B009
:102E000000AF7860794BFB60FB685B6823F440326D
:102E1000FB685A60FB685A687B685B681A43FB680A
:102E20005A607B681B685A687B681B6822F4807252
:102E30005A607B681B6859687B681B691A027B684B
:102E40001B680A435A607B681B685A687B681B686A
:102E500022F040725A607B681B6859687B689A68E8
:102E60007B681B680A435A607B681B689A687B68AA
:102E70001B6822F400629A607B681B6899687B6813
:102E8000DA687B681B680A439A607B689B6A584AC9
:102E9000934222D07B681B689A687B681B6822F08B
:102EA00070629A607B681B6899687B689A6A7B6825
:102EB0001B680A439A607B681B689A687B681B687A
:102EC00022F040529A607B681B6899687B68DA6AD6
:102ED0007B681B680A439A600FE07B681B689A68EE
:102EE0007B681B6822F070629A607B681B689A6836
:102EF0007B681B6822F040529A607B681B689A6866
:102F00007B681B6822F002029A607B681B689968E4
:102F10007B681B7E5A007B681B680A439A607B684B
:102F200093F82030002B1BD07B681B685A687B68A5
:102F30001B6842F400625A607B681B685A687B68B1
:102F40001B6822F460425A607B681B6859687B6882
:102F50005B6A013B5A037B681B680A435A6007E0BF
:102F60007B681B685A687B681B6822F400625A60A1
:102F70007B681B68DA6A7B681B6822F47002DA627D
:102F80007B681B68D96A7B68DB69013B1A057B6833
:102F90001B680A43DA627B681B689A687B681B6857
:102FA00022F400729A607B681B6899687B6893F8CA
:102FB00030305A027B681B680A439A607B681B6842
:102FC0009A687B681B6822F480629A607B681B6841
:102FD00099687B685B699A027B681B680A439A6000
:102FE00000BF1437BD465DF8047B704700230140E5
:102FF0000100000F80B485B000AF78607B6803F0FB
:103000000703FB600C4BDB68BB60BA684FF6FF033D
:103010001340BB60FB681A02BB68134343F0BF63F5
:1030200043F40033BB60044ABB68D36000BF14376D
:10303000BD465DF8047B704700ED00E080B400AF52
:10304000044BDB681B0A03F007031846BD465DF816
:10305000047B704700ED00E080B483B000AF03460E
:103060003960FB7197F90730002B0ADB3B68DAB255
:103070000C4997F907301201D2B20B4483F80023B0
:103080000AE03B68DAB20849FB7903F00F03043B1E
:103090001201D2B20B441A7600BF0C37BD465DF860
:1030A000047B704700E100E000ED00E080B489B0EF
:1030B00000AFF860B9607A60FB6803F00703FB615A
:1030C000FB69C3F10703042B28BF0423BB61FB6921
:1030D0000433062B02D9FB69033B00E000237B612C
:1030E0004FF0FF32BB6902FA03F3DA43BB681A40C0
:1030F0007B699A404FF0FF317B6901FA03F3D943B2
:103100007B680B40134318462437BD465DF8047BAB
:103110007047000080B582B000AF78607B68013BEB
:10312000B3F1807F01D301230FE00A4A7B68013BA2
:1031300053600F214FF0FF30FFF78EFF054B002249
:103140009A60044B07221A60002318460837BD46D0
:1031500080BD00BF10E000E080B582B000AF7860B5
:103160007868FFF747FF00BF0837BD4680BD80B5D0
:1031700086B000AF0346B9607A60FB7300237B61C1
:10318000FFF75CFF78617A68B9687869FFF78EFFAE
:10319000024697F90F3011461846FFF75DFF00BF52
:1031A0001837BD4680BD80B582B000AF78607868C2
:1031B000FFF7B0FF034618460837BD4680BD000044
:1031C00080B489B000AF7860396000237B61002350
:1031D0003B610023BB610023FB6159E10122FB69D4
:1031E00002FA03F37B613B681B687A6913403B6119
:1031F0003A697B699A4240F048813B685B6803F01A
:103200000303012B05D03B685B6803F00303022B2B
:1032100030D17B689B68BB61FB695B00032202FACB
:1032200003F3DB43BA691340BB613B68DA68FB69AF
:103230005B0002FA03F3BA691343BB617B68BA69A6
:103240009A607B685B68BB610122FB6902FA03F349
:10325000DB43BA691340BB613B685B681B0903F041
:103260000102FB6902FA03F3BA691343BB617B688D
:10327000BA695A603B685B6803F00303032B17D0FD
:103280007B68DB68BB61FB695B00032202FA03F326
:10329000DB43BA691340BB613B689A68FB695B001A
:1032A00002FA03F3BA691343BB617B68BA69DA6057
:1032B0003B685B6803F00303022B23D1FB69DA0848
:1032C0007B68083253F82230BB61FB6903F00703C7
:1032D0009B000F2202FA03F3DB43BA691340BB6180
:1032E0003B681A69FB6903F007039B0002FA03F3CA
:1032F000BA691343BB61FB69DA087B680832B969B4
:1033000043F822107B681B68BB61FB695B000322EA
:1033100002FA03F3DB43BA691340BB613B685B68A5
:1033200003F00302FB695B0002FA03F3BA6913437B
:10333000BB617B68BA691A603B685B6803F4403321
:10334000002B00F0A2800023FB60574B5B6C564AB9
:1033500043F480435364544B5B6C03F48043FB6041
:10336000FB68524AFB699B08023352F82330BB6169
:10337000FB6903F003039B000F2202FA03F3DB4314
:10338000BA691340BB617B68494A934219D07B6894
:10339000484A934213D07B68474A93420DD07B68DA
:1033A000464A934207D07B68454A934201D10423A1
:1033B00008E0072306E0032304E0022302E00123E0
:1033C00000E00023FA6902F0030292009340BA6918
:1033D0001343BB613549FB699B080233BA6941F865
:1033E0002320384B9B68BB613B69DB43BA691340C0
:1033F000BB613B685B6803F48013002B03D0BA69A0
:103400003B691343BB612F4ABB6993602D4BDB685B
:10341000BB613B69DB43BA691340BB613B685B68D6
:1034200003F40013002B03D0BA693B691343BB615B
:10343000244ABB69D360234B5B68BB613B69DB43B8
:10344000BA691340BB613B685B6803F40033002B2F
:1034500003D0BA693B691343BB611A4ABB69536025
:10346000184B1B68BB613B69DB43BA691340BB6106
:103470003B685B6803F48033002B03D0BA693B6977
:103480001343BB610F4ABB691360FB690133FB61E6
:10349000FB690F2B7FF6A2AE00BF00BF2437BD46ED
:1034A0005DF8047B704700BF0038024000380140DF
:1034B000000002400004024000080240000C0240EC
:1034C00000100240003C014080B485B000AF78603D
:1034D0000B467B807B681A697B881340002B02D0E7
:1034E0000123FB7301E00023FB73FB7B18461437B9
:1034F000BD465DF8047B704780B483B000AF786050
:103500000B467B8013467B707B78002B03D07A8838
:103510007B689A6103E07B881A047B689A6100BF2C
:103520000C37BD465DF8047B7047000080B586B05F
:1035300000AF78607B68002B01D1012367E27B68D4
:103540001B6803F00103002B75D0884B9B6803F0C8
:103550000C03042B0CD0854B9B6803F00C03082B49
:1035600012D1824B5B6803F48003B3F5800F0BD15B
:103570007E4B1B6803F40033002B5BD07B685B68D9
:10358000002B57D1012342E27B685B68B3F5803F93
:1035900006D1764B1B68754A43F4803313601DE0F7
:1035A0007B685B68B3F5A02F0CD1704B1B686F4A2A
:1035B00043F4802313606D4B1B686C4A43F48033E3
:1035C00013600BE0694B1B68684A23F48033136077
:1035D000664B1B68654A23F4802313607B685B6835
:1035E000002B13D0FFF7A2F9386108E0FFF79EF92E
:1035F00002463B69D31A642B01D9032307E25B4BD4
:103600001B6803F40033002BF0D014E0FFF78EF9B1
:10361000386108E0FFF78AF902463B69D31A642B48
:1036200001D90323F3E1514B1B6803F40033002B52
:10363000F0D100E000BF7B681B6803F00203002BA1
:1036400063D04A4B9B6803F00C03002B0BD0474B15
:103650009B6803F00C03082B1CD1444B5B6803F4FC
:103660008003002B16D1414B1B6803F00203002B93
:1036700005D07B68DB68012B01D00123C7E13B4B00
:103680001B6823F0F8027B681B69DB003749134392
:103690000B603AE07B68DB68002B20D0344B0122C2
:1036A0001A60FFF743F9386108E0FFF73FF9024677
:1036B0003B69D31A022B01D90323A8E12B4B1B68CA
:1036C00003F00203002BF0D0284B1B6823F0F80214
:1036D0007B681B69DB00254913430B6015E0244B15
:1036E00000221A60FFF722F9386108E0FFF71EF99F
:1036F00002463B69D31A022B01D9032387E11B4BF6
:103700001B6803F00203002BF0D17B681B6803F0F9
:103710000803002B36D07B685B69002B16D0154B55
:1037200001221A60FFF702F9386108E0FFF7FEF89E
:1037300002463B69D31A022B01D9032367E10B4BE5
:103740005B6F03F00203002BF0D01BE0094B00225B
:103750001A60FFF7EBF838610EE0FFF7E7F8024672
:103760003B69D31A022B07D9032350E100380240EA
:1037700000004742800E4742884B5B6F03F0020314
:10378000002BEAD17B681B6803F00403002B00F0D8
:1037900097800023FB75814B1B6C03F08053002B3B
:1037A0000FD10023BB607D4B1B6C7C4A43F08053E0
:1037B00013647A4B1B6C03F08053BB60BB6801231E
:1037C000FB75774B1B6803F48073002B18D1744B87
:1037D0001B68734A43F480731360FFF7A7F83861DE
:1037E00008E0FFF7A3F802463B69D31A022B01D980
:1037F00003230CE16A4B1B6803F48073002BF0D0A9
:103800007B689B68012B06D1644B1B6F634A43F0B6
:10381000010313671CE07B689B68052B0CD15F4B91
:103820001B6F5E4A43F0040313675C4B1B6F5B4ADC
:1038300043F0010313670BE0584B1B6F574A23F00B
:1038400001031367554B1B6F544A23F0040313679E
:103850007B689B68002B15D0FFF768F838610AE099
:10386000FFF764F802463B69D31A41F2883293426B
:1038700001D90323CBE0494B1B6F03F00203002B5C
:10388000EED014E0FFF752F838610AE0FFF74EF887
:1038900002463B69D31A41F28832934201D903238D
:1038A000B5E03E4B1B6F03F00203002BEED1FB7D16
:1038B000012B05D1394B1B6C384A23F0805313641C
:1038C0007B689B69002B00F0A180344B9B6803F060
:1038D0000C03082B5CD07B689B69022B41D1314BD8
:1038E00000221A60FFF722F8386108E0FFF71EF89F
:1038F00002463B69D31A022B01D9032387E0274BE9
:103900001B6803F00073002BF0D17B68DA697B68D9
:103910001B6A1A437B685B6A9B011A437B689B6A3C
:103920005B08013B1B041A437B68DB6A1B061B49CF
:1039300013434B601B4B01221A60FEF7F7FF3861FF
:1039400008E0FEF7F3FF02463B69D31A022B01D9C8
:1039500003235CE0114B1B6803F00073002BF0D0D5
:1039600054E0104B00221A60FEF7E0FF386108E0D7
:10397000FEF7DCFF02463B69D31A022B01D9032371
:1039800045E0064B1B6803F00073002BF0D13DE0CF
:103990007B689B69012B07D1012338E00038024086
:1039A00000700040600047421B4B5B68FB607B6817
:1039B0009B69012B28D0FB6803F480027B68DB69DC
:1039C0009A4221D1FB6803F03F027B681B6A9A424E
:1039D0001AD1FA6847F6C07313407A68526A9201A6
:1039E000934211D1FB6803F440327B689B6A5B0809
:1039F000013B1B049A4207D1FB6803F070627B68AD
:103A0000DB6A1B069A4201D0012300E0002318461E
:103A10001837BD4680BD00BF0038024080B584B075
:103A200000AF786039607B68002B01D10123CCE0C6
:103A3000684B1B6803F007033A689A420CD9654B40
:103A40003A68D2B21A70634B1B6803F007033A68F6
:103A50009A4201D00123B8E07B681B6803F002039F
:103A6000002B20D07B681B6803F00403002B05D0DB
:103A7000594B9B68584A43F4E05393607B681B683A
:103A800003F00803002B05D0534B9B68524A43F4C4
:103A900060439360504B9B6823F0F0027B689B6807
:103AA0004D4913438B607B681B6803F00103002BB7
:103AB00044D07B685B68012B07D1474B1B6803F43C
:103AC0000033002B19D101237FE07B685B68022B58
:103AD00003D07B685B68032B07D13F4B1B6803F067
:103AE0000073002B09D101236FE03B4B1B6803F0EF
:103AF0000203002B01D1012367E0374B9B6823F0C1
:103B000003027B685B68344913438B60FEF70EFF4A
:103B1000F8600AE0FEF70AFF0246FB68D31A41F29A
:103B20008832934201D903234FE02B4B9B6803F06B
:103B30000C027B685B689B009A42EBD1254B1B68AB
:103B400003F007033A689A420CD2224B3A68D2B289
:103B50001A70204B1B6803F007033A689A4201D0A1
:103B6000012332E07B681B6803F00403002B08D0BC
:103B7000194B9B6823F4E0527B68DB6816491343BA
:103B80008B607B681B6803F00803002B09D0124B85
:103B90009B6823F460427B681B69DB000E4913437A
:103BA0008B6000F021F802460B4B9B681B0903F069
:103BB0000F030A49CB5C22FA03F3094A1360094B4D
:103BC0001B681846FEF76EFE002318461037BD46E8
:103BD00080BD00BF003C024000380240F49800085D
:103BE00060000020640000202DE9B04F90B000AFCD
:103BF00000237B630023FB6300233B630023BB6341
:103C0000594B9B6803F00C03082B0DD0082B00F2D6
:103C1000A180002B02D0042B03D09BE0534BBB634D
:103C20009BE0534BBB6398E04F4B5B6803F03F0353
:103C30007B634D4B5B6803F48003002B28D04A4B19
:103C40005B689B0900223B627A623B6AC3F308000F
:103C50000021474B03FB01F2002300FB03F3134455
:103C6000434AA0FB0212FA620A46BA62FA6A134495
:103C7000FB627B6B0022BB61FA61D7E90623D7E9BF
:103C80000A01FDF709F802460B461346FB6353E0B1
:103C9000354B5B689B0900223B617A613B69C3F34A
:103CA000080A4FF0000B52465B464FF000004FF001
:103CB0000001590141EAD261500102460B46B2EBC4
:103CC0000A0863EB0B094FF000024FF000034FEAC4
:103CD000891343EA98634FEA8812B2EB080463EB56
:103CE00009054FF000024FF00003EB0043EA547364
:103CF000E20014461D4614EB0A033B6045EB0B0340
:103D00007B604FF000024FF00003D7E900452946E1
:103D10008B02214643EA915321468A0210461946F6
:103D20007B6B0022BB60FA60D7E90223FCF7B4FF8B
:103D300002460B461346FB630B4B5B681B0C03F000
:103D4000030301335B003B63FA6B3B6BB2FBF3F3A2
:103D5000BB6302E0054BBB6300BFBB6B184640373B
:103D6000BD46BDE8B08F00BF003802400024F4001B
:103D700040787D0180B400AF034B1B681846BD46F8
:103D80005DF8047B704700BF6000002080B500AF85
:103D9000FFF7F0FF0246054B9B689B0A03F0070301
:103DA0000349CB5C22FA03F3184680BD0038024079
:103DB0000499000880B500AFFFF7DCFF0246054B11
:103DC0009B685B0B03F007030349CB5C22FA03F308
:103DD000184680BD003802400499000880B582B0C2
:103DE00000AF78607B68002B01D1012341E07B6844
:103DF00093F83D30DBB2002B06D17B68002283F8BC
:103E00003C207868FEF7CEF97B68022283F83D20DB
:103E10007B681A687B6804331946104600F012FB71
:103E20007B68012283F846207B68012283F83E20CC
:103E30007B68012283F83F207B68012283F84020C1
:103E40007B68012283F841207B68012283F84220AD
:103E50007B68012283F843207B68012283F8442099
:103E60007B68012283F845207B68012283F83D208E
:103E7000002318460837BD4680BD000080B485B0D9
:103E800000AF78607B6893F83D30DBB2012B01D046
:103E900001233CE07B68022283F83D207B681B689D
:103EA0001E4A934218D07B681B68B3F1804F13D031
:103EB0007B681B681A4A93420ED07B681B68194ABC
:103EC000934209D07B681B68174A934204D07B68F1
:103ED0001B68164A934211D17B681B689B6803F0EC
:103EE0000703FB60FB68062B10D07B681B681A6811
:103EF0007B681B6842F001021A6007E07B681B6860
:103F00001A687B681B6842F001021A600023184699
:103F10001437BD465DF8047B704700BF00000140C8
:103F20000004004000080040000C00400040014038
:103F300080B582B000AF78607B68002B01D101238F
:103F400041E07B6893F83D30DBB2002B06D17B6803
:103F5000002283F83C207868FEF702F97B68022291
:103F600083F83D207B681A687B6804331946104645
:103F700000F068FA7B68012283F846207B68012202
:103F800083F83E207B68012283F83F207B68012272
:103F900083F840207B68012283F841207B6801225E
:103FA00083F842207B68012283F843207B6801224A
:103FB00083F844207B68012283F845207B68012236
:103FC00083F83D20002318460837BD4680BD000019
:103FD00080B584B000AF786039603B68002B09D1B0
:103FE0007B6893F83E30DBB2012B14BF0123002322
:103FF000DBB222E03B68042B09D17B6893F83F30A9
:10400000DBB2012B14BF01230023DBB215E03B68B8
:10401000082B09D17B6893F84030DBB2012B14BF29
:1040200001230023DBB208E07B6893F84130DBB268
:10403000012B14BF01230023DBB2002B01D001238D
:1040400068E03B68002B04D17B68022283F83E20A5
:1040500013E03B68042B04D17B68022283F83F20E5
:104060000BE03B68082B04D17B68022283F84020D8
:1040700003E07B68022283F841207B681B680122F1
:104080003968184600F08AFC7B681B68234A934213
:1040900007D17B681B685A6C7B681B6842F400423E
:1040A0005A647B681B681D4A934218D07B681B6862
:1040B000B3F1804F13D07B681B68194A93420ED02E
:1040C0007B681B68174A934209D07B681B68164AB5
:1040D000934204D07B681B68144A934211D17B68D9
:1040E0001B689B6803F00703FB60FB68062B10D07E
:1040F0007B681B681A687B681B6842F001021A60C3
:1041000007E07B681B681A687B681B6842F0010245
:104110001A60002318461037BD4680BD00000140DC
:104120000004004000080040000C00400040014036
:1041300080B586B000AFF860B9607A600023FB7587
:10414000FB6893F83C30012B01D10223AEE0FB6801
:10415000012283F83C207B680C2B00F29F8001A297
:1041600052F823F0994100089D4200089D42000842
:104170009D420008D94100089D4200089D42000868
:104180009D4200081B4200089D4200089D42000815
:104190009D4200085B420008FB681B68B96818462E
:1041A00000F0D6F9FB681B689A69FB681B6842F04F
:1041B00008029A61FB681B689A69FB681B6822F019
:1041C00004029A61FB681B689969BB681A69FB68FD
:1041D0001B680A439A6164E0FB681B68B96818466B
:1041E00000F01CFAFB681B689A69FB681B6842F4C4
:1041F00000629A61FB681B689A69FB681B6822F47D
:1042000080629A61FB681B689969BB681B691A0226
:10421000FB681B680A439A6143E0FB681B68B96846
:10422000184600F067FAFB681B68DA69FB681B68D0
:1042300042F00802DA61FB681B68DA69FB681B68F8
:1042400022F00402DA61FB681B68D969BB681A694D
:10425000FB681B680A43DA6123E0FB681B68B968E6
:10426000184600F0B1FAFB681B68DA69FB681B6846
:1042700042F40062DA61FB681B68DA69FB681B685C
:1042800022F48062DA61FB681B68D969BB681B692C
:104290001A02FB681B680A43DA6102E00123FB751E
:1042A00000BFFB68002283F83C20FB7D18461837CE
:1042B000BD4680BD80B584B000AF78603960002312
:1042C000FB737B6893F83C30012B01D10223B4E0EF
:1042D0007B68012283F83C207B68022283F83D2022
:1042E0007B681B689B68BB60BB6823F07703BB607F
:1042F000BB6823F47F43BB607B681B68BA689A6025
:104300003B681B68B3F5005F3ED0B3F5005F00F279
:104310008780B3F5805F00F08680B3F5805F7FD83B
:10432000702B1AD0702B7BD8602B50D0602B77D895
:10433000502B3CD0502B73D8402B58D0402B6FD8EB
:10434000302B64D0302B6BD8202B60D0202B67D83B
:10435000002B5CD0102B5AD062E07B6818683B6859
:1043600099683B685A683B68DB6800F0F7FA7B683D
:104370001B689B68BB60BB6843F07703BB607B68CE
:104380001B68BA689A604FE07B6818683B68996858
:104390003B685A683B68DB6800F0E0FA7B681B68A2
:1043A0009A687B681B6842F480429A603CE07B68B4
:1043B00018683B6859683B68DB681A4600F054FA95
:1043C0007B681B685021184600F0ADFA2CE07B6832
:1043D00018683B6859683B68DB681A4600F073FA56
:1043E0007B681B686021184600F09DFA1CE07B6822
:1043F00018683B6859683B68DB681A4600F034FA75
:104400007B681B684021184600F08DFA0CE07B6841
:104410001A683B681B681946104600F084FA03E0EE
:104420000123FB7300E000BF7B68012283F83D207D
:104430007B68002283F83C20FB7B18461037BD4682
:1044400080BD000080B485B000AF786039607B68C3
:104450001B68FB607B68374A93420FD07B68B3F1DF
:10446000804F0BD07B68344A934207D07B68334A35
:10447000934203D07B68324A934208D1FB6823F011
:104480007003FB603B685B68FA681343FB607B6802
:10449000284A93421BD07B68B3F1804F17D07B68CA
:1044A000254A934213D07B68244A93420FD07B68FD
:1044B000234A93420BD07B68224A934207D07B6801
:1044C000214A934203D07B68204A934208D1FB687B
:1044D00023F44073FB603B68DB68FA681343FB60BE
:1044E000FB6823F080023B685B691343FB603B6819
:1044F0009A687B68DA623B681A687B689A627B68B4
:104500000C4A934203D13B681A697B681A637B6843
:104510001B6843F004027B681A607B6801225A61C1
:104520007B68FA681A6000BF1437BD465DF8047BEB
:10453000704700BF00000140000400400008004038
:10454000000C004000400140004401400048014090
:1045500080B487B000AF786039607B681B6A7B618C
:104560007B681B6A23F001027B681A627B685B68C8
:104570003B617B689B69FB60FB6823F07003FB6019
:10458000FB6823F00303FB603B681B68FA68134376
:10459000FB607B6923F002037B613B689B687A695F
:1045A00013437B617B681C4A93420CD17B6923F0E7
:1045B00008037B613B68DB687A6913437B617B6935
:1045C00023F004037B617B68134A934211D13B695A
:1045D00023F480733B613B6923F400733B613B68C8
:1045E0005B693A6913433B613B689B693A691343D2
:1045F0003B617B683A695A607B68FA689A613B68FC
:104600005A687B685A637B687A691A6200BF1C37F4
:10461000BD465DF8047B70470000014080B487B060
:1046200000AF786039607B681B6A7B617B681B6ABE
:1046300023F010027B681A627B685B683B617B68D1
:104640009B69FB60FB6823F4E043FB60FB6823F499
:104650004073FB603B681B681B02FA681343FB60F6
:104660007B6923F020037B613B689B681B017A69AF
:1046700013437B617B681E4A93420DD17B6923F013
:1046800080037B613B68DB681B017A6913437B61B4
:104690007B6923F040037B617B68154A934213D109
:1046A0003B6923F480633B613B6923F400633B6116
:1046B0003B685B699B003A6913433B613B689B69BC
:1046C0009B003A6913433B617B683A695A607B6897
:1046D000FA689A613B685A687B689A637B687A6972
:1046E0001A6200BF1C37BD465DF8047B704700BFEF
:1046F0000000014080B487B000AF786039607B680B
:104700001B6A7B617B681B6A23F480727B681A6278
:104710007B685B683B617B68DB69FB60FB6823F05F
:104720007003FB60FB6823F00303FB603B681B68BE
:10473000FA681343FB607B6923F400737B613B6879
:104740009B681B027A6913437B617B681D4A934215
:104750000DD17B6923F400637B613B68DB681B023E
:104760007A6913437B617B6923F480637B617B6897
:10477000144A934213D13B6923F480533B613B6954
:1047800023F400533B613B685B691B013A691343A7
:104790003B613B689B691B013A6913433B617B6842
:1047A0003A695A607B68FA68DA613B685A687B68E4
:1047B000DA637B687A691A6200BF1C37BD465DF810
:1047C000047B70470000014080B487B000AF786080
:1047D00039607B681B6A3B617B681B6A23F48052EB
:1047E0007B681A627B685B687B617B68DB69FB6066
:1047F000FB6823F4E043FB60FB6823F44073FB6039
:104800003B681B681B02FA681343FB603B6923F497
:1048100000533B613B689B681B033A6913433B6150
:104820007B68104A934209D17B6923F480437B6102
:104830003B685B699B017A6913437B617B687A699A
:104840005A607B68FA68DA613B685A687B681A6468
:104850007B683A691A6200BF1C37BD465DF8047B6D
:10486000704700BF0000014080B487B000AFF8601F
:10487000B9607A60FB681B6A7B61FB681B6A23F086
:104880000102FB681A62FB689B693B613B6923F08C
:10489000F0033B617B681B013A6913433B617B6911
:1048A00023F00A037B617A69BB6813437B61FB6871
:1048B0003A699A61FB687A691A6200BF1C37BD4683
:1048C0005DF8047B704780B487B000AFF860B960D2
:1048D0007A60FB681B6A7B61FB681B6A23F010022D
:1048E000FB681A62FB689B693B613B6923F4704378
:1048F0003B617B681B033A6913433B617B6923F08F
:10490000A0037B61BB681B017A6913437B61FB6871
:104910003A699A61FB687A691A6200BF1C37BD4622
:104920005DF8047B704780B485B000AF7860396073
:104930007B689B68FB60FB6823F07003FB603A6850
:10494000FB68134343F00703FB607B68FA689A60D7
:1049500000BF1437BD465DF8047B704780B487B054
:1049600000AFF860B9607A603B60FB689B687B6170
:104970007B6923F47F437B613B681A027B681A439F
:10498000BB6813437A6913437B61FB687A699A6059
:1049900000BF1C37BD465DF8047B704780B487B00C
:1049A00000AFF860B9607A60BB6803F01F030122B2
:1049B00002FA03F37B61FB681A6A7B69DB431A40E6
:1049C000FB681A62FB681A6ABB6803F01F03796808
:1049D00001FA03F31A43FB681A6200BF1C37BD4695
:1049E0005DF8047B7047000080B485B000AF78604C
:1049F00039607B6893F83C30012B01D1022350E0F1
:104A00007B68012283F83C207B68022283F83D20EA
:104A10007B681B685B68FB607B681B689B68BB608E
:104A2000FB6823F07003FB603B681B68FA68134364
:104A3000FB607B681B68FA685A607B681B681C4ACD
:104A4000934218D07B681B68B3F1804F13D07B680A
:104A50001B68184A93420ED07B681B68164A934223
:104A600009D07B681B68154A934204D07B681B6899
:104A7000134A93420CD1BB6823F08003BB603B68B0
:104A80005B68BA681343BB607B681B68BA689A604E
:104A90007B68012283F83D207B68002283F83C205C
:104AA000002318461437BD465DF8047B704700BFED
:104AB000000001400004004000080040000C0040DD
:104AC0000040014080B485B000AF786039600023B9
:104AD000FB607B6893F83C30012B01D102233DE061
:104AE0007B68012283F83C20FB6823F0FF023B68CF
:104AF000DB681343FB60FB6823F440723B689B68F0
:104B00001343FB60FB6823F480623B685B681343DC
:104B1000FB60FB6823F400623B681B681343FB6087
:104B2000FB6823F480523B681B691343FB60FB68FE
:104B300023F400523B685B691343FB60FB6823F47A
:104B400080423B68DB691343FB607B681B68FA6843
:104B50005A647B68002283F83C20002318461437EF
:104B6000BD465DF8047B704780B582B000AF7860C9
:104B70007B68002B01D1012342E07B6893F8413030
:104B8000DBB2002B06D17B68002283F840207868D6
:104B9000FDF764FB7B68242283F841207B681B6857
:104BA000DA687B681B6822F40052DA60786800F0EB
:104BB0008BF87B681B681A697B681B6822F490423B
:104BC0001A617B681B685A697B681B6822F02A029D
:104BD0005A617B681B68DA687B681B6842F4005284
:104BE000DA607B6800225A647B68202283F84120C7
:104BF0007B68202283F842207B6800225A630023CE
:104C000018460837BD4680BD80B584B000AFF86057
:104C1000B9601346FB80FB6893F84230DBB2202B6F
:104C200012D1BB68002B02D0FB88002B01D10123DD
:104C30000BE0FB6800221A63FB881A46B968F86823
:104C400000F007F8034600E0022318461037BD467F
:104C500080BD80B485B000AFF860B9601346FB80BA
:104C6000FB68BA689A62FB68FA889A85FB68FA88DA
:104C7000DA85FB6800225A64FB68222283F842200E
:104C8000FB681B69002B07D0FB681B68DA68FB68B0
:104C90001B6842F48072DA60FB681B685A69FB6823
:104CA0001B6842F001025A61FB681B68DA68FB6806
:104CB0001B6842F02002DA60002318461437BD4614
:104CC0005DF8047B704700002DE9B04FC0B000AF25
:104CD000C7F8F400D7F8F4301B681B6923F4405080
:104CE000D7F8F430D968D7F8F4301A6840EA0103ED
:104CF0001361D7F8F4309A68D7F8F4301B691A4377
:104D0000D7F8F4305B691A43D7F8F430DB69134302
:104D1000C7F8F830D7F8F4301B68DB6823F4164185
:104D200021F00C01D7F8F4301A68D7F8F8300B43AB
:104D3000D360D7F8F4301B685B6923F44070D7F870
:104D4000F4309969D7F8F4301A6840EA01035361E6
:104D5000D7F8F4301A688F4B9A4205D0D7F8F43060
:104D60001A688D4B9A4204D1FFF724F8C7F8FC006B
:104D700003E0FFF70BF8C7F8FC00D7F8F430DB6965
:104D8000B3F5004F40F00C81D7F8FC300022C7F893
:104D9000E830C7F8EC20D7E93A4522462B4691186F
:104DA000B9655B41FB65D7E91623214612EB010883
:104DB000294643EB01094FF000024FF000034FEA90
:104DC000C90343EA58734FEAC802904699462346FE
:104DD00018EB0303C7F8E0302B4649EB0303C7F891
:104DE000E430D7F8F4305B680022C7F8D830C7F851
:104DF000DC20D7E936120B46DB183B65134642EB45
:104E000003037B65D7E91423D7E93801FBF744FF97
:104E100002460B46614BA3FB02235B091C01D7F83A
:104E2000FC300022C7F8D030C7F8D420D7E9348945
:104E300042464B469118B9645B41FB64D7E91223A3
:104E4000414612EB010A494643EB010B4FF00002C9
:104E50004FF000034FEACB0343EA5A734FEACA020A
:104E600092469B4643461AEB0303C7F8C8304B46AD
:104E70004BEB0303C7F8CC30D7F8F4305B68002263
:104E8000C7F8C030C7F8C420D7E930120B46DB188A
:104E90003B64134642EB03037B64D7E91023D7E955
:104EA0003201FBF7F9FE02460B4611463B4BA3FBD2
:104EB00001235B09642202FB03F3CB1ADB0003F13D
:104EC0003202364BA3FB02235B095B0003F4F87349
:104ED0001C44D7F8FC300022C7F8B830C7F8BC2013
:104EE000D7E92E8942464B469118B9635B41FB6373
:104EF000D7E90E2341465118396349464B417B633C
:104F00004FF000024FF00003D7E90CAB5946CB003D
:104F1000514643EA51735146CA00104619460346AA
:104F200042469B18C7F8B0304B460A4642EB030393
:104F3000C7F8B430D7F8F4305B680022C7F8A8305F
:104F4000C7F8AC20D7E92A120B46DB18BB62134620
:104F500042EB0303FB62D7E90A23D7E92C01FBF7F5
:104F60009BFE02460B460D4BA3FB02135B0964211B
:104F700001FB03F3D31ADB003233084AA2FB0323FD
:104F80005B0903F00702D7F8F4301B6822449A60EB
:104F900006E100BF00100140001401401F85EB51E5
:104FA000D7F8FC300022C7F8A030C7F8A420D7E912
:104FB000288942464B46911839625B417B62D7E9AA
:104FC000082341465418494643EB01054FF00002BF
:104FD0004FF00003EB0043EA5473E20014461D4611
:104FE0004346E318C7F898304B4645EB0303C7F830
:104FF0009C30D7F8F4305B680022C7F89030C7F8CF
:1050000094204FF000024FF00003D7E924452946D1
:105010008B00214643EA917321468A00D7E9260195
:10502000FBF73AFE02460B46604BA3FB02235B09EB
:105030001C01D7F8FC300022C7F88830C7F88C2054
:10504000D7E9228942464B469118B9615B41FB6121
:10505000D7E9062341465118396149464B417B61E6
:105060004FF000024FF00003D7E904AB5946CB00E4
:10507000514643EA51735146CA0010461946034649
:1050800042469B18C7F880304B460A4642EB030362
:10509000C7F88430D7F8F4305B680022BB67FA6742
:1050A0004FF000024FF00003D7E91E8949468B00FC
:1050B000414643EA917341468A00D7E92001FBF754
:1050C000EBFD02460B461146384BA3FB01235B095F
:1050D000642202FB03F3CB1A1B013233334AA2FBD7
:1050E00003235B0903F0F0031C44D7F8FC300022D3
:1050F0003B677A67D7E91C8942464B469118B960ED
:105100005B41FB60D7E902234146511839604946AB
:105110004B417B604FF000024FF00003D7E900AB3A
:105120005946CB00514643EA51735146CA001046D6
:105130001946034642469B18BB664B460A4642EB5D
:105140000303FB66D7F8F4305B6800223B667A669F
:105150004FF000024FF00003D7E9188949468B0051
:10516000414643EA917341468A00D7E91A01FBF7A9
:1051700093FD02460B460D4BA3FB02135B09642112
:1051800001FB03F3D31A1B013233084AA2FB0323AA
:105190005B0903F00F02D7F8F4301B6822449A60D1
:1051A00000BF07F58077BD46BDE8B08F1F85EB5186
:1051B0002DE9FF4757EC106B002F0C4619463B4674
:1051C000BBBF07F100431F4600232D230B700D9B2F
:1051D000DDF830A0914623F02008BCBF32461646C9
:1051E000B8F1460F05D0B8F1450F00D101340221C6
:1051F00000E0032103AB019302AB009347EC106B7B
:105200005346224601F070F8B8F1470F054619D110
:1052100019F0010F0ED000EB0409002200233046E4
:105220003946FBF759FC08B1CDF80C903022039BAE
:105230004B451ED3039B0E9A5B1B2846136004B09C
:10524000BDE8F087B8F1460F00EB0409E5D103781B
:10525000302B0AD10022002330463946FBF73CFCB4
:1052600018B9C4F10104CAF80040DAF800309944D2
:10527000D3E7591C03911A70D9E7F7B50029BABFD3
:1052800049422D232B2309290270437029DD0DF19A
:1052900007031D460A271A46B1FBF7F607FB16144B
:1052A000303402F8014C0C46632C03F1FF333146D5
:1052B000F1DC3031941E03F8011C411C2346AB4243
:1052C0000AD30DF109039B1AAC4288BF00230233B5
:1052D0000344181A03B0F0BD13F8016B01F8016F15
:1052E000EDE7302330318370C170031DF1E700001A
:1052F0002DE9F04F8DB00C46DDF8588016461F465C
:10530000054600F0E9FE036804931846FAF7B8FF73
:1053100000230A93D8F800300590073323F00703E1
:1053200003F1080294F818A0D4F800B0C8F80020DF
:10533000D3E9008929F000430793CDF81880C4E928
:105340001289DDE906019C4B4FF0FF32FBF7F6FBBB
:1053500070BBDDE90601984B4FF0FF32FBF7D0FB45
:1053600030BB0022002340464946FBF7BFFB10B18B
:105370002D2384F84330914A914BBAF1470F8CBFEB
:1053800090469846032323612BF0040323604FF0DB
:105390000009009733460BAA2146284600F0D2F9AF
:1053A000013040F08D804FF0FF300DB0BDE8F08F40
:1053B00042464B4640464946FBF7C0FB40B14B4690
:1053C000002BBCBF2D2384F843307E4A7E4BD4E7AC
:1053D00063680AF0DF0206925A1C3BD10623636021
:1053E0004BF480620023226003930AABCDE901A352
:1053F00009AB0093616849EC108B0DF1230328463B
:10540000FFF7D6FE069B0999472B804629D1C81C79
:1054100002DB6368994241DDAAF1020A5FFA8AFA67
:105420000139524604F150000991FFF726FF0A9A0C
:105430001318012A8146236102DC2268D20701D5B4
:10544000013323619DF82330002BA2D02D2384F853
:1054500043309EE7069A472AC2D1002BC0D10123D0
:10546000BDE7BAF1650FDBD9BAF1660F18D1002993
:1054700063680BDD216113B92268D00702D50133BF
:105480000B442361A1654FF00009DBE713B92268E3
:10549000D20701D50233F4E70123F2E74FF0670AA0
:1054A0000A9B994205DB23682161D807EAD54B1C8A
:1054B000E7E70029D4BFC1F1020201221344E0E76B
:1054C00023685A0507D42369424631462846B8471F
:1054D00001302BD167E7BAF1650F40F2DD80D4E9E6
:1054E000120100220023FBF7F7FA002833D0374AD5
:1054F000012331462846B84701303FF454AFDDE977
:105500000938434502DB2368D8070FD5DDE90423BA
:1055100031462846B84701303FF445AF4FF0000907
:1055200008F1FF3804F11A0AC84509DC23689B0713
:1055300000F10381E0680B9B9842B8BF184634E73E
:105540000123524631462846B84701303FF42BAF7D
:1055500009F10109E8E7099B002B39DC1B4A01230B
:1055600031462846B84701303FF41DAFDDE909391F
:1055700059EA030302D12368D907D7D5DDE904230B
:1055800031462846B84701303FF40DAF4FF0000ACE
:1055900004F11A0B099B5B42534501DC4B4693E730
:1055A00001235A4631462846B84701303FF4FBAE46
:1055B0000AF1010AEEE700BFFFFFEF7F2099000824
:1055C0001C99000828990008249900082C990008C3
:1055D000A36DDDF828A05345A8BF5346002B99467C
:1055E00036DC4FF0000B29EAE97904F11A02A36DC9
:1055F0000693A3EB09035B4531DC099B9A453ADC32
:105600002368DA0737D4099BAAEB0309069BAAEBA8
:1056100003039945A8BF9946B9F1000F33DC4FF059
:10562000000829EAE97904F11A0B099BAAEB0303A4
:10563000A3EB090343457FF779AF01235A4631466F
:105640002846B84701303FF4AEAE08F10108ECE758
:10565000424631462846B8470130C2D1A3E601236D
:10566000314628460692B84701303FF49CAE069A70
:105670000BF1010BBBE7DDE9042331462846B847AF
:105680000130C0D18FE6069A4B4642443146284647
:10569000B8470130C3D186E6DDF828A0BAF1010F82
:1056A00001DCDB0736D50123424631462846B847A0
:1056B00001303FF478AEDDE9042331462846B8478F
:1056C00001303FF470AED4E91201002200230AF148
:1056D000FF3AFBF701FAC0B9534608F1010231461F
:1056E0002846B84701300CD15DE601235A463146C1
:1056F0002846B84701303FF456AE08F10108D045BE
:10570000F3DB4B4604F15002DFE64FF0000804F1F2
:105710001A0BF4E701234246E1E701234A463146EA
:105720002846B84701303FF43EAE08F10108E3686F
:105730000B995B1A4345F0DCFCE64FF0000804F1DE
:105740001909F4E72DE9F047164698468A680B696F
:10575000DDF820909342B8BF1346336091F84320A0
:1057600007460C460AB1013333602368990642BFED
:10577000336802333360256815F0060506D104F15D
:10578000190AE36832689B1AAB4226DC94F843306E
:105790002268003B18BF012392062BD404F1430278
:1057A00041463846C84701301ED02368226903F0BD
:1057B0000603042B02BFE5683368ED1AA3680CBF2B
:1057C00025EAE57500259342C4BF9B1AED18002613
:1057D0001A34B5421AD1002008E00123524641464E
:1057E0003846C847013003D14FF0FF30BDE8F0879D
:1057F0000135C6E7E1185A1C302081F843002244E5
:1058000094F8451082F843100233C7E7012322467B
:1058100041463846C8470130E6D00136D9E7000096
:105820002DE9FF470F7E0C9E782F914680460C464F
:105830009A4601F1430207D8622F0AD8002F00F0E0
:10584000D180582F00F0B88004F1420684F84270ED
:105850003AE0A7F16303152BF6D801A151F823F024
:10586000B9580008CD5800084958000849580008A0
:105870004958000849580008CD5800084958000800
:10588000495800084958000849580008CB590008F1
:10589000F758000885590008495800084958000879
:1058A000ED59000849580008F75800084958000801
:1058B000495800088D59000833681A1D1B6832606A
:1058C00004F1420684F8423001239CE033682068EA
:1058D000191D3160060601D51D6803E04506FBD59C
:1058E000B3F90050002D03DA2D236D4284F84330C4
:1058F00058480A2311E021683368080653F8045B0E
:1059000002D4490648BFADB26F2F5248336014BF6E
:105910000A230823002184F843106668A660002E3D
:1059200005DB21682E4321F0040121604BD016468F
:10593000B5FBF3F103FB1157C75D06F8017D2F4658
:10594000BB420D46F4D9082B0BD12368DF0708D5DD
:10595000236961689942DEBF302306F8013C06F1F5
:10596000FF36921B2261CDF800A04B4603AA2146C8
:105970004046FFF7E7FE01304AD14FF0FF3004B058
:10598000BDE8F087236843F020032360324878277E
:1059900084F84570236831681F0651F8045B02D40F
:1059A0005F0648BFADB23160D90744BF43F0200362
:1059B00023601DB11023ADE72648E9E7236823F0F3
:1059C00020032360F6E71646BDE733682568616962
:1059D000181D30602E061B6801D5196002E06806AC
:1059E000FBD51980002323611646BCE733681A1DD6
:1059F00032601E68626800213046FAF7F1FB08B198
:105A0000801B606063682361002384F84330AAE749
:105A10002369324649464046D0470130ADD023681D
:105A20009B0713D4E068039B9842B8BF1846A6E7CB
:105A30000123324649464046D04701309DD00135CA
:105A4000E36803995B1AAB42F2DCEBE7002504F153
:105A50001906F5E72E9900083F9900082DE9F04F47
:105A600087B0914603938B685A1EB2F5AE7F81BF13
:105A70006FF4AE7503EB050B40F25D138B600B68A2
:105A80000A464FF0000543F4F06342F81C3BCDE9B1
:105A9000045580460C4698BF4FF0000B0192164605
:105AA000AA462F460295A2685AB1D9F800301B7851
:105AB0004E2B63D8402B3BD8A3F12B01C8B20E2844
:105AC00039D91FB1236823F4807323600AF1FF3AA8
:105AD000BAF1010F00F21481019B9E4200F2058190
